:100000000BEF02F0F76A140FF66E000EF7220900EC
:10001000F55012003132333435363738392A30232F
:1000200053656C656363696F6E61722043616D0037
:100030000C43616D2073656C6563696F6E6164610B
:1000400000003C2D2D2D2D002D2D2D2D3E20256326
:1000500020002020202020202020202020202020C0
:1000600020202000506F70612042722043616D3A61
:100070002025632000002020202020202020202078
:100080002020202020202000506F70612045722009
:1000900043616D3A2025632000002020202020208D
:1000A0002020202020202020202020004D6F746F51
:1000B000722042722043616D203A202563200000A7
:1000C0002020202020202020202020202020202030
:1000D00020004D6F746F722045722043616D3A208D
:1000E00025632000202020202020202020202020E8
:1000F00020202020200053616C6F6E2043616D3AF8
:1001000020256320000020202020202020202020E7
:10011000202020202020200050726F612020436189
:100120006D3A202563200000202020202020202060
:10013000202020202020202020002D2D2D2D2D209E
:1001400043616D203A2025632000202020202020BC
:100150002020202020202020202020002D2D2D2D8B
:100160002D2043616D3A202563200000EA6A170EB6
:10017000E96EEF500DE0020E016E006A002EFED710
:10018000012EFBD7970E006E002EFED7EF2EF3D771
:1001900012001D38F00B006E0F0E8A1400108A6ECC
:1001A00000008A8000D000D08A9012008150006E3A
:1001B00000380F0B016E12000F0E9314F009936EAE
:1001C0008A8400008A800000F1DF01C01DF08A905F
:1001D00000008A8000D0EADF01C01CF08A900F0E78
:1001E0009314936E1D38006EF00E001600501C1014
:1001F000016E00EF01F09390939293948A92DCD772
:1002000001C01CF001BEFBD78A921AB08A8200009E
:100210008A9400008A901B381C6E0F0E1C161CC09E
:100220001DF0B7DF1B500F0B1C6E1D6EB2DF1200EE
:10023000280E136E0C0E146E010E156E060E166E41
:100240008A908A928A940F0E9314936E939093924D
:1002500093940F0E176E8ADF010E126E1250030870
:1002600008E3030E1D6E95DF050E176E7FDF122A61
:10027000F5D7020E1D6E8DDF050E176E77DF126A41
:10028000125003080FE3036A1250130FE96E000EB9
:100290000320EA6EEFCF17F01A6A17C01BF0ABDF2E
:1002A000122AEED721EF02F022EF02F0172C01D034
:1002B00003D0400E186E01D0186A010E165C182685
:1002C00018508009196E1A6A1B6E95DF12001550BE
:1002D000070A07E00B0A0AE0060A10E0020A14E027
:1002E00018D0010E166E176EE1DF18D01A6A010ED3
:1002F0001B6E81DF020E176E39DF10D0010E166EF5
:10030000020E176ED3DF0AD01A6A100E1B6E73DF4F
:1003100005D0010E1A6E15C01BF06DDF120009002A
:10032000F5520CE0F6CF12F0F7CF13F0F5CF15F041
:10033000CEDF12C0F6FF13C0F7FFF1D71200126A2A
:10034000042A0450210852E2075005E0010A07E0A0
:10035000030A09E00BD0DE0E936E816E07D0BE0E4D
:10036000936E816E03D07E0E936E816E05A009D0D0
:1003700081501E0B1E0804E1059006C012F0066AAB
:1003800034D081501E0B1E082BE08150020B02E17D
:10039000136A11D08150040B03E1010E136E0BD0D0
:1003A0008150080B03E1020E136E05D08150100B33
:1003B00002E1030E136E1350030DF350156A146E11
:1003C000036A07501424016E155003220150F2CF26
:1003D00014F0F29E17DE14BEF28E066E058005D074
:1003E000072A0750030801E1076A046AFE0E936EAC
:1003F00012C001F046EF02F00900F6CF13F0F7CF7C
:1004000014F0F5CF15F063DF13C0F6FF14C0F7FF4B
:10041000122EF2D71200F86AD09E700ED36ED3500F
:10042000C150C00B0F09C16E070EB46E0590046A6F
:100430000590066A076A086A096A720ED36ED3507D
:10044000F7D632D7F19E92988988C80E176E8EDE45
:1004500092988998C80E176E89DE92988988C80E7E
:10046000176E84DE92988998C80E176E7FDE929878
:1004700089880F6A010E166E176E18DF200EF66E51
:10048000000EF76E4CDF0F5257E159D701C00EF046
:100490000E521BE00E502A0818E00E50230815E0FB
:1004A0000E50390812E00E5030080FE00EC010F068
:1004B0000F2A010E166E176EF9DE300EF66E000E64
:1004C000F76E2DDF0A0E176E51DE0E5215E00E503C
:1004D0002A0812E1105031080FE00F2A010E105EB9
:1004E000166E020E176EE2DE420EF66E000EF76E0C
:1004F00016DF0A0E176E3ADE0E521DE00E5023086C
:100500001AE11050380817E00F2A010E1026166E57
:10051000020E176ECBDE480EF66E000EF76E060E5C
:10052000126E6ADF10C015F0D2DE200E156ECFDE1F
:100530000A0E176E1BDEA7D70A0E176E17DE0F6A9C
:100540000F50080815E3036A0F50110FE96E000EF3
:100550000320EA6EF2CF14F0F29E0FC0A9FFA69C12
:10056000A69EA680A85014BEF28EEF6E0F2AE8D782
:100570001150105C32E1010E166E020E176E96DEFF
:10058000520EF66E000EF76ECADE010E176EEEDD2D
:10059000010E166E020E176E89DE640EF66E000EE8
:1005A000F76E0D0E126E28DF10C015F090DE200ED3
:1005B000156E8DDE95908C8095928C9295948C948E
:1005C00095968C9695988C98959A8C9A959C8C9CDF
:1005D000959E8C9E0A0E176EC9DD1250105C32E19A
:1005E000010E166E020E176E61DE760EF66E000EAE
:1005F000F76E95DE010E176EB9DD010E166E020E56
:10060000176E54DE880EF66E000EF76E0D0E126E2B
:10061000F3DE10C015F05BDE200E156E58DE9592ED
:100620008C8295908C9095948C9495968C969598B8
:100630008C98959A8C9A959C8C9C959E8C9E0A0E73
:10064000176E94DD1350105C32E1010E166E020E2F
:10065000176E2CDE9A0EF66E000EF76E60DE010E3F
:10066000176E84DD010E166E020E176E1FDEAC0EC5
:10067000F66E000EF76E0F0E126EBEDE10C015F095
:1006800026DE200E156E23DE95948C8495908C903A
:1006900095928C9295968C9695988C98959A8C9A22
:1006A000959C8C9C959E8C9E0A0E176E5FDD195052
:1006B000105C32E1010E166E020E176EF7DDC00EF1
:1006C000F66E000EF76E2BDE010E176E4FDD010E7B
:1006D000166E020E176EEADDD20EF66E000EF76E83
:1006E0000E0E126E89DE10C015F0F1DD200E156EB3
:1006F000EEDD95968C8695908C9095928C92959443
:100700008C9495988C98959A8C9A959C8C9C959E97
:100710008C9E0A0E176E2ADD1550105C32E1010E18
:10072000166E020E176EC2DDE40EF66E000EF76E48
:10073000F6DD010E176E1ADD010E166E020E176E33
:10074000B5DDF60EF66E000EF76E0B0E126E54DE71
:1007500010C015F0BCDD200E156EB9DD95988C88A3
:1007600095908C9095928C9295948C9495968C966D
:10077000959A8C9A959C8C9C959E8C9E0A0E176ED1
:10078000F5DC1650105C32E1010E166E020E176E8B
:100790008DDD060EF66E010EF76EC1DD010E176ED1
:1007A000E5DC010E166E020E176E80DD180EF66E79
:1007B000010EF76E0B0E126E1FDE10C015F087DDF6
:1007C000200E156E84DD959A8C8A95908C9095926A
:1007D0008C9295948C9495968C9695988C98959CE3
:1007E0008C9C959E8C9E0A0E176EC0DC1750105C78
:1007F00032E1010E166E020E176E58DD280EF66EEF
:10080000010EF76E8CDD010E176EB0DC010E166E58
:10081000020E176E4BDD3A0EF66E010EF76E0C0EE1
:10082000126EEADD10C015F052DD200E156E4FDDA0
:10083000959C8C8C95908C9095928C9295948C94A0
:1008400095968C9695988C98959A8C9A959E8C9E58
:100850000A0E176E8BDC1850105C32E1010E166E1A
:10086000020E176E23DD4A0EF66E010EF76E57DD8F
:10087000010E176E7BDC010E166E020E176E16DD72
:100880005C0EF66E010EF76E0B0E126EB5DD10C02B
:1008900015F01DDD200E156E1ADD959E8C8E95903F
:1008A0008C9095928C9295948C9495968C96959824
:1008B0008C98959A8C9A959C8C9C0A0E176E56DC97
:0408C000D8D5030084
:0200000400F00A
:090000003132333435363738341F
:020000040030CA
:0E0000003FC8391E0007A10000400FE00F406E
:00000001FF
;PIC18F4550
;CRC=2831  CREATED="28-oct.-15 22:01"
